:100000000C9434000C9451000C9451000C94530047
:100010000C948E000C9451000C9451000C945100DF
:100020000C9451000C9451000C9451000C9451000C
:100030000C9451000C9451000C9451000C945100FC
:100040000C9451000C9451000C948E020C945100AD
:100050000C9451000C9451000C9451000C945100DC
:100060000C9451000C94510011241FBECFEFD8E026
:10007000DEBFCDBF11E0A0E0B1E0ECEBF1E102C0EA
:1000800005900D92AA33B107D9F721E0AAE3B1E0B8
:1000900001C01D92AF36B207E1F70E94E8040C944C
:1000A000DC080C9400001F920F920FB60F921124DF
:1000B0008F931B9904C081E08093480103C01C9B6F
:1000C000109248018F910F900FBE0F901F901895BE
:1000D000E8E6F0E0808183608083ECE6F0E08081F8
:1000E00086608083EBE6F0E080818861808378948D
:1000F000089586B1869581708093440186B182FB14
:10010000882780F980934501089580914501809367
:100110004701809144018093460108951F920F92F8
:100120000FB60F9211242F933F934F935F936F93CA
:100130007F938F939F93AF93BF93EF93FF930E940F
:10014000790080914801811166C0209102013091AF
:10015000030180910001909101012817390749F4AA
:10016000809100019091010101979093010180938A
:10017000000180914701811129C0809146018111C0
:1001800016C0809145018823C9F0813069F48091BF
:100190004401811109C080910001909101010197F2
:1001A00090930101809300010E9485009FC08130DF
:1001B00009F09CC080914501813029F4809144016F
:1001C000813091F71BC0882311F3EECF813009F005
:1001D0008DC080914601813039F480914501813094
:1001E00049F0882399F0E0CF811180C080914501CA
:1001F00081110AC0809144018111D6CF8091000104
:10020000909101010196CCCF813071F6809144012B
:10021000813051F6C0CF80914801813009F066C02D
:100220002091020130910301809100019091010120
:100230002817390749F48091020190910301019632
:1002400090930301809302018091470181111FC0A7
:1002500080914601811107C080914501882351F0AA
:10026000813081F0A1CF813009F040C080914501FB
:10027000813031F480914401813009F095CF1EC066
:10028000811192CF80914401882331F18DCF81304B
:1002900069F580914601813039F4809145018130C2
:1002A00049F08823A1F080CF811120C080914501C1
:1002B00081110AC080914401811176CF80910201A1
:1002C0009091030101960DC0813009F06DCF8091AE
:1002D0004401813009F068CF8091020190910301BF
:1002E000019790930301809302015ECFFF91EF91FC
:1002F000BF91AF919F918F917F916F915F914F913E
:100300003F912F910F900FBE0F901F9018951F9344
:10031000CF93DF9380E80E94320388E091E09F93BF
:100320008F931F9210E11F93C9E4D1E0DF93CF9325
:100330000E94FD05CE010E948E0380E80E943203D8
:1003400020910401309105018091060190910701EF
:100350003F932F939F938F938BE191E09F938F9384
:100360001F921F93DF93CF930E94FD05CE010E9441
:100370008E03809106019091070190934301809331
:100380004201809104019091050190934101809375
:1003900040018DB79EB740960FB6F8949EBF0FBE32
:1003A0008DBFDF91CF911F9108951F93CF93DF935E
:1003B00080EC0E94320388E091E09F938F931F921C
:1003C00010E11F93CFE5D1E0DF93CF930E94FD05AD
:1003D000CE010E948E0380EC0E9432032091000126
:1003E0003091010180910201909103013F932F937D
:1003F0009F938F938AE291E09F938F931F921F9315
:10040000DF93CF930E94FD05CE010E948E03809161
:1004100002019091030190933F0180933E018091EE
:1004200000019091010190933D0180933C018DB7B3
:100430009EB740960FB6F8949EBF0FBE8DBFDF915A
:10044000CF911F910895209106013091070180916D
:100450000201909103018217930714F45A9A0FC076
:1004600020910601309107018091000190910101D6
:10047000281739071CF45B9A5A9808955A985B9884
:100480000895FC012081FAE02F9F90011124FC01C6
:100490008181803811F42B5F3F4F49E0429FC001BA
:1004A000439F900D112465E070E00E94D5059B01EB
:1004B000EAE0F0E0CB01BF010E94D505853091054F
:1004C0003CF0AF01481B590BCA01820F931F04C0B7
:1004D000F901E81BF90BCF016AE070E00E94D50535
:1004E000605E7F4F70930701609306010895E1EC11
:1004F000F0E0208120682083208128612083909370
:10050000C5008093C40086E08093C2000895809166
:10051000C00087FFFCCF8091C60008951F920F9204
:100520000FB60F9211242F933F934F935F936F93C6
:100530007F938F939F93AF93BF93EF93FF930E940B
:100540008702E0913B01FF27E7FDF095E75AFE4F58
:10055000808380913B018F5F80933B0180913B01C1
:10056000843029F410923B0181E080933A01FF919D
:10057000EF91BF91AF919F918F917F916F915F911B
:100580004F913F912F910F900FBE0F901F90189594
:100590009091C00095FFFCCF8093C6000895EF9224
:1005A000FF921F93CF93DF931F92CDB7DEB77C01ED
:1005B00097FF02C08DE201C08BE20E94C802C70112
:1005C00064E670E00E94D505162F80E3860F0E9436
:1005D000C802C70124E612028019910911246AE0B9
:1005E00070E00E94D50580E3860F69830E94C802EF
:1005F00080E38E0D94E6199F801911246981EAE049
:100600006E9F801911240F90DF91CF911F91FF9061
:10061000EF900C94C8029BB19F709BB99BB1807FF7
:10062000892B8BB9299A85E08A95F1F700002998E2
:100630000895CF93DF932898C82FD0E0CE010E9471
:100640000B03CE0124E0880F991F2A95E1F70E9441
:100650000B038FE39FE10197F1F700C00000DF91EA
:10066000CF9108950C9419038AB1806F8AB984B12F
:10067000836084B98FE59AEE0197F1F700C000001E
:1006800080E390E00E940B038FE79EE30197F1F770
:1006900000C0000080E390E00E940B038FE891E02F
:1006A0000197F1F700C0000080E390E00E940B0387
:1006B00080E290E00E940B038FE39FE10197F1F746
:1006C00000C0000088E20E9419038FE39FE10197B8
:1006D000F1F700C000008FE00E9419038FE39FE153
:1006E0000197F1F700C000000895CF93DF93289A97
:1006F000C82FD0E0CE010E940B03CE0134E0880F5A
:10070000991F3A95E1F70E940B038FE39FE1019750
:10071000F1F700C00000DF91CF9108950F931F9370
:10072000CF93DF93EC018C01FE0101900020E9F7EB
:100730003197EC1BFD0BC8018C1B9D0B8E179F077F
:1007400030F4F80181918F010E947503EDCFDF91A4
:10075000CF911F910F910895CF92DF92EF92FF9268
:100760000F931F934115510521F40115110509F44B
:10077000A0C094EA9093BC009091BC0097FFFCCF7E
:100780009091B900987F983009F068C0982F9E7FAB
:100790009093BB0094E89093BC009091BC0097FFAD
:1007A000FCCF9091B900987F983121F0903209F0F8
:1007B00055C051C0FB01460F571F64E8E417F50709
:1007C00091F091919093BB006093BC009091BC001C
:1007D00097FFFCCF9091B900987F983279F39033CE
:1007E000E9F590E338C0F901020F131F24E8E01780
:1007F000F10779F091919093BB002093BC00909108
:10080000BC0097FFFCCF9091B900987F983279F3A4
:10081000E6CFC114D10409F44AC020E194EA9093D0
:10082000BC009091BC0097FFFCCF9091B900987FDD
:10083000921314C081608093BB0084E88093BC0055
:100840008091BC0087FFFCCF9091B900987F9034D5
:1008500039F0983419F484E98093BC00892F2FC0B3
:10086000F70184EC91E0C916D10491F08093BC00AB
:100870009091BC0097FFFCCF9091B900987F21E048
:10088000C21AD108903551F79091BB009193EACFED
:1008900084E88093BC008091BC0087FFFCCF9091DE
:1008A000B900987F9835D1F68091BB00808390E0A5
:1008B000D2CFC114D10411F028E0B0CF80E01F9155
:1008C0000F91FF90EF90DF90CF900895CF92DF923D
:1008D000EF92FF920F931F93CF93DF931F92CDB7A9
:1008E000DEB78EEE8983C12CD12CE12CF12C00E0F7
:1008F00010E020E030E041E050E0BE016F5F7F4F4C
:1009000080E90E94AC030F90DF91CF911F910F916E
:10091000FF90EF90DF90CF900895CF92DF92EF920B
:10092000FF920F931F93CF93DF931F92CDB7DEB744
:100930002AEA298322E0C22ED12C7C0100E010E0BB
:1009400020E030E041E050E0BE016F5F7F4F80E982
:100950000E94AC030F90DF91CF911F910F91FF90F8
:10096000EF90DF90CF900895CF92DF92EF92FF92B9
:100970000F931F93CF93DF9300D0CDB7DEB71092C4
:10098000B90089E48093B8008CEA898382E08A8385
:10099000C12CD12CE12CF12C00E010E020E030E063
:1009A00042E050E0BE016F5F7F4F80E90E94AC03E0
:1009B0000F900F90DF91CF911F910F91FF90EF90CB
:1009C000DF90CF9008951092B9008093B8000895F9
:1009D0008AB18C608AB93B9A439885B1886185B9A0
:1009E00088B1866088B90E9434030E94680081E063
:1009F0000E94190380E80E94320320910401309183
:100A0000050180910601909107013F932F939F93D9
:100A10008F938BE191E09F938F931F92C0E1CF93CF
:100A200089E491E09F938F930E94FD0589E491E012
:100A30000E948E0380EC0E943203209100013091CD
:100A4000010180910201909103013F932F939F93A5
:100A50008F938AE291E09F938F931F92CF938FE5BC
:100A600091E09F938F930E94FD058FE591E00E9496
:100A70008E030E94B4040E94660488E690E00E94FF
:100A800077028DB79EB744960FB6F8949EBF0FBEFF
:100A90008DBFC4E6DAE08DE591E00E948D048DE51E
:100AA00091E00E9441020E94230280913A0181302C
:100AB000C1F560915A0140915B0120915C0177275B
:100AC00067FD709560537109C69FC001C79F900D67
:100AD0001124552747FD509540535109D49FB0012B
:100AE000D59F700D1124860F971F332727FD309552
:100AF00020533109820F931F9093050180930401C5
:100B0000809159018D3259F4809104019091050131
:100B1000919581959109909305018093040110921C
:100B20003A01209106013091070180914201909194
:100B300043012817390731F0809106019091070190
:100B40000E94CF02809106019091070120914201FD
:100B5000309143012817390759F48091040190918D
:100B6000050120914001309141012817390719F002
:100B70000E94870190CF8091020190910301209102
:100B80003E0130913F012817390761F4809100013F
:100B90009091010120913C0130913D0128173907C6
:100BA00009F479CF0E94D50176CF97FB072E16F472
:100BB000009407D077FD09D00E94E90507FC05D015
:100BC0003EF4909581959F4F0895709561957F4F64
:100BD0000895AA1BBB1B51E107C0AA1FBB1FA61784
:100BE000B70710F0A61BB70B881F991F5A95A9F7D6
:100BF00080959095BC01CD010895AEE0B0E0E3E0B2
:100C0000F6E00C94B3080D891E898F89988D26E033
:100C10002C831A83098397FF02C080E090E8019734
:100C20009E838D83AE01455E5F4F698D7A8DCE01C7
:100C300001960E942D064D815E8157FD0AC02F81CD
:100C40003885421753070CF49A01F801E20FF31F9D
:100C500010822E96E4E00C94CF08ACE0B0E0E3E321
:100C6000F6E00C94A5087C016B018A01FC01178257
:100C70001682838181FFBDC1CE0101964C01F7012F
:100C80009381F60193FD859193FF81916F018823F4
:100C900009F4ABC1853239F493FD859193FF8191BD
:100CA0006F01853229F4B70190E00E941508E7CF63
:100CB000512C312C20E02032A0F48B3269F030F43A
:100CC000803259F0833269F420612CC08D3239F0C2
:100CD000803339F4216026C02260246023C028605C
:100CE00021C027FD27C030ED380F3A3078F426FFB9
:100CF00006C0FAE05F9E300D1124532E13C08AE027
:100D0000389E300D1124332E20620CC08E3221F417
:100D100026FD6BC1206406C08C3611F4206802C029
:100D2000883641F4F60193FD859193FF81916F011F
:100D30008111C1CF982F9F7D9554933028F40C5F7B
:100D40001F4FFFE3F9830DC0833631F0833771F015
:100D5000833509F05BC022C0F801808189830E5F72
:100D60001F4F44244394512C540115C03801F2E024
:100D70006F0E711CF801A080B18026FF03C0652DA5
:100D800070E002C06FEF7FEFC5012C870E940A0858
:100D90002C0183012C852F77222E17C03801F2E019
:100DA0006F0E711CF801A080B18026FF03C0652D75
:100DB00070E002C06FEF7FEFC5012C870E94FF0734
:100DC0002C012C852068222E830123FC1BC0832D3F
:100DD00090E048165906B0F4B70180E290E00E9416
:100DE00015083A94F4CFF50127FC859127FE8191EF
:100DF0005F01B70190E00E94150831103A94F1E0CC
:100E00004F1A51084114510471F7E5C0843611F0AE
:100E1000893639F5F80127FF07C060817181828129
:100E200093810C5F1F4F08C060817181882777FD17
:100E30008095982F0E5F1F4F2F76B22E97FF09C017
:100E400090958095709561957F4F8F4F9F4F20684B
:100E5000B22E2AE030E0A4010E944708A82EA8186C
:100E600044C0853729F42F7EB22E2AE030E025C019
:100E7000F22FF97FBF2E8F36C1F018F4883579F044
:100E8000B4C0803719F0883721F0AFC02F2F206110
:100E9000B22EB4FE0DC08B2D8460B82E09C024FF85
:100EA0000AC09F2F9660B92E06C028E030E005C02A
:100EB00020E130E002C020E132E0F801B7FE07C0D7
:100EC00060817181828193810C5F1F4F06C06081B8
:100ED000718180E090E00E5F1F4FA4010E944708DF
:100EE000A82EA818FB2DFF77BF2EB6FE0BC02B2D0A
:100EF0002E7FA51450F4B4FE0AC0B2FC08C02B2DFE
:100F00002E7E05C07A2C2B2D03C07A2C01C0752CA7
:100F100024FF0DC0FE01EA0DF11D8081803311F424
:100F2000297E09C022FF06C07394739404C0822FE7
:100F3000867809F0739423FD13C020FF06C05A2C55
:100F4000731418F4530C5718732C731468F4B70106
:100F500080E290E02C870E94150873942C85F5CFD1
:100F6000731410F4371801C0312C24FF12C0B701DC
:100F700080E390E02C870E9415082C8522FF17C083
:100F800021FF03C088E590E002C088E790E0B70148
:100F90000CC0822F867859F021FD02C080E201C08A
:100FA0008BE227FD8DE2B70190E00E941508A514A1
:100FB00038F4B70180E390E00E9415085A94F7CF07
:100FC000AA94F401EA0DF11D8081B70190E00E941E
:100FD0001508A110F5CF332009F451CEB70180E2F6
:100FE00090E00E9415083A94F6CFF7018681978128
:100FF00002C08FEF9FEF2C96E2E10C94C108FC0138
:101000000590615070400110D8F7809590958E0F33
:101010009F1F0895FC016150704001900110D8F7A6
:10102000809590958E0F9F1F08950F931F93CF93D8
:10103000DF93182F092FEB018B8181FD03C08FEF08
:101040009FEF20C082FF10C04E815F812C813D81C7
:10105000421753077CF4E881F9819F012F5F3F4FCE
:1010600039832883108306C0E885F985812F099587
:10107000892B29F72E813F812F5F3F4F3F832E839E
:10108000812F902FDF91CF911F910F910895FA0139
:10109000AA27283051F1203181F1E8946F936E7FB7
:1010A0006E5F7F4F8F4F9F4FAF4FB1E03ED0B4E0A8
:1010B0003CD0670F781F891F9A1FA11D680F791FE9
:1010C0008A1F911DA11D6A0F711D811D911DA11DFA
:1010D00020D009F468943F912AE0269F112430190A
:1010E000305D3193DEF6CF010895462F4770405DA5
:1010F0004193B3E00FD0C9F7F6CF462F4F70405D54
:101100004A3318F0495D31FD4052419302D0A9F7AE
:10111000EACFB4E0A6959795879577956795BA95A8
:10112000C9F700976105710508959B01AC010A2E6E
:1011300006945795479537952795BA95C9F7620F45
:10114000731F841F951FA01D08952F923F924F92E9
:101150005F926F927F928F929F92AF92BF92CF9247
:10116000DF92EF92FF920F931F93CF93DF93CDB750
:10117000DEB7CA1BDB0B0FB6F894DEBF0FBECDBFC8
:1011800009942A88398848885F846E847D848C8499
:101190009B84AA84B984C884DF80EE80FD800C81A2
:1011A0001B81AA81B981CE0FD11D0FB6F894DEBF85
:0C11B0000FBECDBFED010895F894FFCFF5
:1011BC004800520066004E002020202020202020D5
:1011CC00202020202020202020200054656D703A03
:1011DC00256420526D743A256400486967683A2585
:0A11EC0064204C6F773A2564000080
:00000001FF
